{
  "_format": "hh-sol-artifact-1",
  "contractName": "EmergencyWallet",
  "sourceName": "contracts/EmergencyWallet.sol",
  "abi": [
    {
      "anonymous": false,
      "inputs": [
        {
          "indexed": true,
          "internalType": "uint256",
          "name": "id",
          "type": "uint256"
        },
        {
          "indexed": true,
          "internalType": "address",
          "name": "sender",
          "type": "address"
        },
        {
          "indexed": true,
          "internalType": "address",
          "name": "recipient",
          "type": "address"
        },
        {
          "indexed": false,
          "internalType": "uint256",
          "name": "amount",
          "type": "uint256"
        },
        {
          "indexed": false,
          "internalType": "enum EmergencyWallet.Category",
          "name": "category",
          "type": "uint8"
        },
        {
          "indexed": false,
          "internalType": "uint64",
          "name": "expiry",
          "type": "uint64"
        }
      ],
      "name": "FundsLocked",
      "type": "event"
    },
    {
      "anonymous": false,
      "inputs": [
        {
          "indexed": true,
          "internalType": "uint256",
          "name": "id",
          "type": "uint256"
        },
        {
          "indexed": true,
          "internalType": "address",
          "name": "recipient",
          "type": "address"
        },
        {
          "indexed": true,
          "internalType": "address",
          "name": "vendor",
          "type": "address"
        },
        {
          "indexed": false,
          "internalType": "uint256",
          "name": "amount",
          "type": "uint256"
        }
      ],
      "name": "FundsSpent",
      "type": "event"
    },
    {
      "anonymous": false,
      "inputs": [
        {
          "indexed": true,
          "internalType": "uint256",
          "name": "id",
          "type": "uint256"
        },
        {
          "indexed": true,
          "internalType": "address",
          "name": "sender",
          "type": "address"
        },
        {
          "indexed": false,
          "internalType": "uint256",
          "name": "amount",
          "type": "uint256"
        }
      ],
      "name": "Refunded",
      "type": "event"
    },
    {
      "anonymous": false,
      "inputs": [
        {
          "indexed": true,
          "internalType": "address",
          "name": "vendor",
          "type": "address"
        },
        {
          "indexed": false,
          "internalType": "enum EmergencyWallet.Category",
          "name": "category",
          "type": "uint8"
        }
      ],
      "name": "VendorRegistered",
      "type": "event"
    },
    {
      "inputs": [
        {
          "internalType": "address",
          "name": "recipient",
          "type": "address"
        },
        {
          "internalType": "enum EmergencyWallet.Category",
          "name": "category",
          "type": "uint8"
        },
        {
          "internalType": "uint64",
          "name": "expiry",
          "type": "uint64"
        }
      ],
      "name": "lockFunds",
      "outputs": [],
      "stateMutability": "payable",
      "type": "function"
    },
    {
      "inputs": [
        {
          "internalType": "uint256",
          "name": "",
          "type": "uint256"
        }
      ],
      "name": "locks",
      "outputs": [
        {
          "internalType": "address",
          "name": "sender",
          "type": "address"
        },
        {
          "internalType": "address",
          "name": "recipient",
          "type": "address"
        },
        {
          "internalType": "uint256",
          "name": "amount",
          "type": "uint256"
        },
        {
          "internalType": "enum EmergencyWallet.Category",
          "name": "category",
          "type": "uint8"
        },
        {
          "internalType": "uint64",
          "name": "expiry",
          "type": "uint64"
        },
        {
          "internalType": "bool",
          "name": "spent",
          "type": "bool"
        }
      ],
      "stateMutability": "view",
      "type": "function"
    },
    {
      "inputs": [],
      "name": "nextId",
      "outputs": [
        {
          "internalType": "uint256",
          "name": "",
          "type": "uint256"
        }
      ],
      "stateMutability": "view",
      "type": "function"
    },
    {
      "inputs": [
        {
          "internalType": "uint256",
          "name": "id",
          "type": "uint256"
        }
      ],
      "name": "refund",
      "outputs": [],
      "stateMutability": "nonpayable",
      "type": "function"
    },
    {
      "inputs": [
        {
          "internalType": "enum EmergencyWallet.Category",
          "name": "category",
          "type": "uint8"
        }
      ],
      "name": "registerVendor",
      "outputs": [],
      "stateMutability": "nonpayable",
      "type": "function"
    },
    {
      "inputs": [
        {
          "internalType": "uint256",
          "name": "id",
          "type": "uint256"
        },
        {
          "internalType": "address payable",
          "name": "vendor",
          "type": "address"
        }
      ],
      "name": "spendFunds",
      "outputs": [],
      "stateMutability": "nonpayable",
      "type": "function"
    },
    {
      "inputs": [
        {
          "internalType": "address",
          "name": "",
          "type": "address"
        }
      ],
      "name": "vendorCategory",
      "outputs": [
        {
          "internalType": "enum EmergencyWallet.Category",
          "name": "",
          "type": "uint8"
        }
      ],
      "stateMutability": "view",
      "type": "function"
    },
    {
      "inputs": [
        {
          "internalType": "address",
          "name": "",
          "type": "address"
        }
      ],
      "name": "vendorRegistered",
      "outputs": [
        {
          "internalType": "bool",
          "name": "",
          "type": "bool"
        }
      ],
      "stateMutability": "view",
      "type": "function"
    }
  ],
  "bytecode": "0x608060405234801561001057600080fd5b50611892806100206000396000f3fe60806040526004361061007b5760003560e01c806368aa7bfc1161004e57806368aa7bfc1461013a5780636e50d30314610156578063f01a142c14610193578063f4dadc61146101bc5761007b565b8063025ee9431461008057806317910d63146100a9578063278ecde1146100e657806361b8ce8c1461010f575b600080fd5b34801561008c57600080fd5b506100a760048036038101906100a29190610f19565b6101fe565b005b3480156100b557600080fd5b506100d060048036038101906100cb9190610f97565b610693565b6040516100dd9190610fdf565b60405180910390f35b3480156100f257600080fd5b5061010d60048036038101906101089190610ffa565b6106b3565b005b34801561011b57600080fd5b50610124610974565b6040516101319190611036565b60405180910390f35b610154600480360381019061014f91906110b6565b61097a565b005b34801561016257600080fd5b5061017d60048036038101906101789190610f97565b610ca6565b60405161018a9190611180565b60405180910390f35b34801561019f57600080fd5b506101ba60048036038101906101b5919061119b565b610cc6565b005b3480156101c857600080fd5b506101e360048036038101906101de9190610ffa565b610dd6565b6040516101f5969594939291906111e6565b60405180910390f35b600460009054906101000a900460ff161561024e576040517f08c379a0000000000000000000000000000000000000000000000000000000008152600401610245906112a4565b60405180910390fd5b6001600460006101000a81548160ff02191690831515021790555060006001600084815260200190815260200160002090508060010160009054906101000a900473ffffffffffffffffffffffffffffffffffffffff1673ffffffffffffffffffffffffffffffffffffffff163373ffffffffffffffffffffffffffffffffffffffff1614610312576040517f08c379a000000000000000000000000000000000000000000000000000000000815260040161030990611310565b60405180910390fd5b8060030160099054906101000a900460ff1615610364576040517f08c379a000000000000000000000000000000000000000000000000000000000815260040161035b9061137c565b60405180910390fd5b8060030160019054906101000a900467ffffffffffffffff1667ffffffffffffffff1642106103c8576040517f08c379a00000000000000000000000000000000000000000000000000000000081526004016103bf906113e8565b60405180910390fd5b600260008373ffffffffffffffffffffffffffffffffffffffff1673ffffffffffffffffffffffffffffffffffffffff16815260200190815260200160002060009054906101000a900460ff16610454576040517f08c379a000000000000000000000000000000000000000000000000000000000815260040161044b90611454565b60405180910390fd5b8060030160009054906101000a900460ff16600281111561047857610477611109565b5b600360008473ffffffffffffffffffffffffffffffffffffffff1673ffffffffffffffffffffffffffffffffffffffff16815260200190815260200160002060009054906101000a900460ff1660028111156104d7576104d6611109565b5b14610517576040517f08c379a000000000000000000000000000000000000000000000000000000000815260040161050e906114c0565b60405180910390fd5b60018160030160096101000a81548160ff02191690831515021790555060008273ffffffffffffffffffffffffffffffffffffffff16826002015460405161055e90611511565b60006040518083038185875af1925050503d806000811461059b576040519150601f19603f3d011682016040523d82523d6000602084013e6105a0565b606091505b50509050806105e4576040517f08c379a00000000000000000000000000000000000000000000000000000000081526004016105db90611572565b60405180910390fd5b8273ffffffffffffffffffffffffffffffffffffffff168260010160009054906101000a900473ffffffffffffffffffffffffffffffffffffffff1673ffffffffffffffffffffffffffffffffffffffff16857fa8369428c9dbfa379b1bcd74729d32a8d8d57e692b8505e78134a04bd7ad2ce0856002015460405161066a9190611036565b60405180910390a450506000600460006101000a81548160ff0219169083151502179055505050565b60026020528060005260406000206000915054906101000a900460ff1681565b600460009054906101000a900460ff1615610703576040517f08c379a00000000000000000000000000000000000000000000000000000000081526004016106fa906112a4565b60405180910390fd5b6001600460006101000a81548160ff02191690831515021790555060006001600083815260200190815260200160002090508060030160099054906101000a900460ff1615610787576040517f08c379a000000000000000000000000000000000000000000000000000000000815260040161077e9061137c565b60405180910390fd5b8060030160019054906101000a900467ffffffffffffffff1667ffffffffffffffff164210156107ec576040517f08c379a00000000000000000000000000000000000000000000000000000000081526004016107e3906115de565b60405180910390fd5b60018160030160096101000a81548160ff02191690831515021790555060008160000160009054906101000a900473ffffffffffffffffffffffffffffffffffffffff1673ffffffffffffffffffffffffffffffffffffffff16826002015460405161085790611511565b60006040518083038185875af1925050503d8060008114610894576040519150601f19603f3d011682016040523d82523d6000602084013e610899565b606091505b50509050806108dd576040517f08c379a00000000000000000000000000000000000000000000000000000000081526004016108d49061164a565b60405180910390fd5b8160000160009054906101000a900473ffffffffffffffffffffffffffffffffffffffff1673ffffffffffffffffffffffffffffffffffffffff16837f7ca5472b7ea78c2c0141c5a12ee6d170cf4ce8ed06be3d22c8252ddfc7a6a2c4846002015460405161094c9190611036565b60405180910390a350506000600460006101000a81548160ff02191690831515021790555050565b60005481565b600034116109bd576040517f08c379a00000000000000000000000000000000000000000000000000000000081526004016109b4906116b6565b60405180910390fd5b600073ffffffffffffffffffffffffffffffffffffffff168373ffffffffffffffffffffffffffffffffffffffff1603610a2c576040517f08c379a0000000000000000000000000000000000000000000000000000000008152600401610a2390611722565b60405180910390fd5b428167ffffffffffffffff1611610a78576040517f08c379a0000000000000000000000000000000000000000000000000000000008152600401610a6f9061178e565b60405180910390fd5b6040518060c001604052803373ffffffffffffffffffffffffffffffffffffffff1681526020018473ffffffffffffffffffffffffffffffffffffffff168152602001348152602001836002811115610ad457610ad3611109565b5b81526020018267ffffffffffffffff16815260200160001515815250600160008054815260200190815260200160002060008201518160000160006101000a81548173ffffffffffffffffffffffffffffffffffffffff021916908373ffffffffffffffffffffffffffffffffffffffff16021790555060208201518160010160006101000a81548173ffffffffffffffffffffffffffffffffffffffff021916908373ffffffffffffffffffffffffffffffffffffffff1602179055506040820151816002015560608201518160030160006101000a81548160ff02191690836002811115610bc757610bc6611109565b5b021790555060808201518160030160016101000a81548167ffffffffffffffff021916908367ffffffffffffffff16021790555060a08201518160030160096101000a81548160ff0219169083151502179055509050508273ffffffffffffffffffffffffffffffffffffffff163373ffffffffffffffffffffffffffffffffffffffff166000547fc2cf49b89609f4ac52d59391262311c6be811d59a267c4c5f31dfa309b07f5f6348686604051610c82939291906117ae565b60405180910390a4600080815480929190610c9c90611814565b9190505550505050565b60036020528060005260406000206000915054906101000a900460ff1681565b6001600260003373ffffffffffffffffffffffffffffffffffffffff1673ffffffffffffffffffffffffffffffffffffffff16815260200190815260200160002060006101000a81548160ff02191690831515021790555080600360003373ffffffffffffffffffffffffffffffffffffffff1673ffffffffffffffffffffffffffffffffffffffff16815260200190815260200160002060006101000a81548160ff02191690836002811115610d8057610d7f611109565b5b02179055503373ffffffffffffffffffffffffffffffffffffffff167f44ee18c519231808f98e998f9c35f2a0046c0940007e78444edcfe646ffba86282604051610dcb9190611180565b60405180910390a250565b60016020528060005260406000206000915090508060000160009054906101000a900473ffffffffffffffffffffffffffffffffffffffff16908060010160009054906101000a900473ffffffffffffffffffffffffffffffffffffffff16908060020154908060030160009054906101000a900460ff16908060030160019054906101000a900467ffffffffffffffff16908060030160099054906101000a900460ff16905086565b600080fd5b6000819050919050565b610e9881610e85565b8114610ea357600080fd5b50565b600081359050610eb581610e8f565b92915050565b600073ffffffffffffffffffffffffffffffffffffffff82169050919050565b6000610ee682610ebb565b9050919050565b610ef681610edb565b8114610f0157600080fd5b50565b600081359050610f1381610eed565b92915050565b60008060408385031215610f3057610f2f610e80565b5b6000610f3e85828601610ea6565b9250506020610f4f85828601610f04565b9150509250929050565b6000610f6482610ebb565b9050919050565b610f7481610f59565b8114610f7f57600080fd5b50565b600081359050610f9181610f6b565b92915050565b600060208284031215610fad57610fac610e80565b5b6000610fbb84828501610f82565b91505092915050565b60008115159050919050565b610fd981610fc4565b82525050565b6000602082019050610ff46000830184610fd0565b92915050565b6000602082840312156110105761100f610e80565b5b600061101e84828501610ea6565b91505092915050565b61103081610e85565b82525050565b600060208201905061104b6000830184611027565b92915050565b6003811061105e57600080fd5b50565b60008135905061107081611051565b92915050565b600067ffffffffffffffff82169050919050565b61109381611076565b811461109e57600080fd5b50565b6000813590506110b08161108a565b92915050565b6000806000606084860312156110cf576110ce610e80565b5b60006110dd86828701610f82565b93505060206110ee86828701611061565b92505060406110ff868287016110a1565b9150509250925092565b7f4e487b7100000000000000000000000000000000000000000000000000000000600052602160045260246000fd5b6003811061114957611148611109565b5b50565b600081905061115a82611138565b919050565b600061116a8261114c565b9050919050565b61117a8161115f565b82525050565b60006020820190506111956000830184611171565b92915050565b6000602082840312156111b1576111b0610e80565b5b60006111bf84828501611061565b91505092915050565b6111d181610f59565b82525050565b6111e081611076565b82525050565b600060c0820190506111fb60008301896111c8565b61120860208301886111c8565b6112156040830187611027565b6112226060830186611171565b61122f60808301856111d7565b61123c60a0830184610fd0565b979650505050505050565b600082825260208201905092915050565b7f5245454e5452414e435900000000000000000000000000000000000000000000600082015250565b600061128e600a83611247565b915061129982611258565b602082019050919050565b600060208201905081810360008301526112bd81611281565b9050919050565b7f4e4f545f524543495049454e5400000000000000000000000000000000000000600082015250565b60006112fa600d83611247565b9150611305826112c4565b602082019050919050565b60006020820190508181036000830152611329816112ed565b9050919050565b7f414c52454144595f434c41494d45440000000000000000000000000000000000600082015250565b6000611366600f83611247565b915061137182611330565b602082019050919050565b6000602082019050818103600083015261139581611359565b9050919050565b7f4558504952454400000000000000000000000000000000000000000000000000600082015250565b60006113d2600783611247565b91506113dd8261139c565b602082019050919050565b60006020820190508181036000830152611401816113c5565b9050919050565b7f56454e444f525f4e4f545f524547495354455245440000000000000000000000600082015250565b600061143e601583611247565b915061144982611408565b602082019050919050565b6000602082019050818103600083015261146d81611431565b9050919050565b7f43415445474f52595f4d49534d41544348000000000000000000000000000000600082015250565b60006114aa601183611247565b91506114b582611474565b602082019050919050565b600060208201905081810360008301526114d98161149d565b9050919050565b600081905092915050565b50565b60006114fb6000836114e0565b9150611506826114eb565b600082019050919050565b600061151c826114ee565b9150819050919050565b7f5041595f4641494c000000000000000000000000000000000000000000000000600082015250565b600061155c600883611247565b915061156782611526565b602082019050919050565b6000602082019050818103600083015261158b8161154f565b9050919050565b7f4e4f545f45585049524544000000000000000000000000000000000000000000600082015250565b60006115c8600b83611247565b91506115d382611592565b602082019050919050565b600060208201905081810360008301526115f7816115bb565b9050919050565b7f524546554e445f4641494c000000000000000000000000000000000000000000600082015250565b6000611634600b83611247565b915061163f826115fe565b602082019050919050565b6000602082019050818103600083015261166381611627565b9050919050565b7f4e4f5f56414c5545000000000000000000000000000000000000000000000000600082015250565b60006116a0600883611247565b91506116ab8261166a565b602082019050919050565b600060208201905081810360008301526116cf81611693565b9050919050565b7f4241445f524543495049454e5400000000000000000000000000000000000000600082015250565b600061170c600d83611247565b9150611717826116d6565b602082019050919050565b6000602082019050818103600083015261173b816116ff565b9050919050565b7f4241445f45585049525900000000000000000000000000000000000000000000600082015250565b6000611778600a83611247565b915061178382611742565b602082019050919050565b600060208201905081810360008301526117a78161176b565b9050919050565b60006060820190506117c36000830186611027565b6117d06020830185611171565b6117dd60408301846111d7565b949350505050565b7f4e487b7100000000000000000000000000000000000000000000000000000000600052601160045260246000fd5b600061181f82610e85565b91507fffffffffffffffffffffffffffffffffffffffffffffffffffffffffffffffff8203611851576118506117e5565b5b60018201905091905056fea264697066735822122065ed8ce79a5603151864b881626e8f160e73e406941349f77d277fe1010f715f64736f6c63430008180033",
  "linkReferences": {},
  "deployedLinkReferences": {}
}